:020000020000FC
:040000000C942C0030
:100054000C948D0022240E94F200C0E0D2E087E0DC
:10006400299229928A95E1F7A0E0B1E0C0E0D2E0BC
:10007400E0E0F3E090E087E69093C5008093C4004D
:1000840088E18093C10086E08093C20081E0809380
:100094007E0084E080937A0080E480937C008091E9
:1000A4007A00806280937A0080917A0080688093DD
:1000B4007A0080917A00886080937A0083E080934C
:1000C4007B0080E086BD88E287BD82E084BD82E05B
:1000D40085BD80917A00806480937A00789491E061
:1000E40084E6882E8214F1F7F89480E080937A00F5
:1000F40080E085BDE0E0F3E000E018EC011749F092
:100104008091C00085FFFACFF190F092C60003956C
:10011400F5CF0C948B0082E085BB913009F006C0CA
:100124004091780050917900939553C040917800A4
:100134005091790040505240599349938E010E508A
:1001440012400AF402C0D2E0C0E07D916D913324E4
:1001540044245524662486E0782E75029001649F19
:10016400800174033209100D211D321D560332091A
:10017400100D211D321D300E411E521E631E599159
:1001840049917D916D918E010E5012401AF57A9429
:1001940021F775029001649F800174033209100DE8
:1001A400211D321D56033209100D211D321D300E42
:1001B400411E521E631E441C551C661C61925192C2
:1001C400A0E0B1E0C250D2098E01005012402AF0E2
:1001D4008A941895D2E0C0E0DACFD2E0CCE0F8CF30
:1001E400A0E0B1E05FEF4BEF5D934D935FEF44ED23
:1001F4005D934D935FEF44EC5D934D935FEF4EEE53
:100204005D934D9350E040E55D934D9350E042EA99
:100214005D934D9350E04FE65D934D935FEF43E95B
:100224005D934D935EEF4FE95D934D935EEF4EE921
:100234005D934D9350E044E25D934D9352E044E668
:100244005D934D9353E04FE45D934D9351E04EE243
:100254005D934D935CEF41E95D934D9358EF47EE09
:100264005D934D935AEF45EB5D934D9354E04AE310
:100274005D934D9353E149E05D934D9350E242EA1F
:100284005D934D9356E245E25D934D9350E242EA0D
:100294005D934D9353E149E05D934D9354E04AE3FC
:1002A4005D934D935AEF45EB5D934D9358EF47EEB5
:1002B4005D934D935CEF41E95D934D9351E04EE2C4
:1002C4005D934D9353E04FE45D934D9352E044E6C8
:1002D4005D934D9350E044E25D934D935EEF4EE9A0
:1002E4005D934D935EEF4FE95D934D935FEF43E96B
:1002F4005D934D9350E04FE65D934D9350E042EA99
:100304005D934D9350E040E55D934D935FEF4EEE6A
:100314005D934D935FEF44EC5D934D935FEF44ED3C
:0E0324005D934D935FEF4BEF5D934D93089506
:00000001FF
