:020000020000FC
:040000000C942C0030
:100054000C94A5002224A0E0B1E02D922D922D92C3
:100064002D92C0E0D2E0299229922992299290E01F
:1000740087E69093C5008093C40088E18093C10013
:1000840086E08093C20081E080937E0085E08093C7
:100094007A0080E480937C0080917A00806280936F
:1000A4007A0080917A00806880937A0080917A0047
:1000B400886080937A0083E080937B0080E086BD33
:1000C40087E387BD82E084BD82E085BD80917A00AC
:1000D400806480937A00789491E084E6882E821478
:1000E400F1F7F89480E080937A0080E085BDC4E065
:1000F400D2E000E018EC011749F08091C00085FFC0
:10010400FACFD990D092C6000395F5CF8BEAD82EBA
:1001140084E1882E8091C00085FFFCCFD092C60078
:100124008A94C1F7A4E0B1E000E018EC011749F0AB
:100134008091C00085FFFACFDD90D092C600039570
:10014400F5CF0C94A30082E085BB913009F006C082
:10015400409178005091790093957CC0E0907800AC
:10016400F090790080E0E81A82E0F80AFD92ED92BE
:100174003324442455246624EE90FE904E915E91DF
:100184006DEC7CE875029001649F80017403320970
:10019400100D211D321D56033209100D211D321D73
:1001A400301A410A520A630A4E915E9167ED73E375
:1001B40075029001649F800174033209100D211DA2
:1001C400321D56033209100D211D321D300E411E01
:1001D400521E631E4A915A916CED7FE275029001A2
:1001E400649F800174033209100D211D321D5603D2
:1001F4003209100D211D321D300E411E521E631E88
:100204004A915A916CE671E175029001649F8001F4
:1002140074033209100D211D321D56033209100DCD
:10022400211D321D301A410A520A630A86E066947F
:10023400579447948A95D9F74E0C5F1C82E05594E5
:1002440047948A95E1F784E0C80F5992499286E071
:06025400A80F8A94189522
:00000001FF
