:020000020000FC
:040000000C942C0030
:100054000C94AD002224A0E0B1E02D922D922D92BB
:100064002D922D922D922D922D92C0E0D2E02992C4
:10007400299229922992299229922992299290E0EF
:1000840087E69093C5008093C40088E18093C10003
:1000940086E08093C20081E080937E0085E08093B7
:1000A4007A0080E480937C0080917A00806280935F
:1000B4007A0080917A00806880937A0080917A0037
:1000C400886080937A0083E080937B0080E086BD23
:1000D4008FE487BD82E084BD82E085BD80917A0093
:1000E400806480937A007894AFEF82E3F82EF21460
:1000F400F1F7F89480E080937A0080E085BDC8E051
:10010400D2E000E018EC011749F08091C00085FFAF
:10011400FACFF990F092C6000395F5CF8BEAF82E4A
:100124008AE0982E8091C00085FFFCCFF092C60033
:100134009A94C1F7A8E0B1E000E018EC011749F087
:100144008091C00085FFFACFFD90F092C600039520
:10015400F5CF0C94AB0082E085BBAF3F09F006C03D
:100164006091780070917900A8E0B0C16091780046
:100174007091790080E0681B82E0780B872F80788B
:1001840087FF03C08FEFE82E02C080E0E82EED92D7
:10019400ED927D936D93332444245524662477246F
:1001A40088246E917E91EE90EE906E917E91EE9009
:1001B400EE9083E7D82E83E3C82E83E3B82E83E33F
:1001C400A82E972F862FB6015E2D4E2D2224750260
:1001D4009001649F800174033209100D211D321DAA
:1001E40056033209100D211D321D700E811EB501FA
:1001F400592F482F759F9001649F8001749F100DA3
:10020400211D321D569F100D211D321D300E411E21
:10021400521E631EB60175039001649F800174032E
:100224003209100D211D321D659F100D211D321D37
:10023400500E611E721E831E7E2D6E2DA501750348
:100244009001649F800174033209100D211D321D39
:10025400659F100D211D321D500E611E721E831EDE
:100264006E917E91EE90EE9083E3D82E87EDC82EAA
:100274008AE0B82E8DE3A82E972F862FB6015E2D27
:100284004E2D222475029001649F8001740332096B
:10029400100D211D321D56033209100D211D321D72
:1002A400700E811EB501592F482F759F9001649FD0
:1002B4008001749F100D211D321D569F100D211DAC
:1002C400321D300E411E521E631EB601750390018D
:1002D400649F800174033209100D211D321D659F36
:1002E400100D211D321D500E611E721E831E7E2DA7
:1002F4006E2DA50175039001649F8001740332097A
:10030400100D211D321D659F100D211D321D500E33
:10031400611E721E831E6A917A91EA90EA9084E0CB
:10032400D82E8CEBC82E80E4B82E8BECA82E972FF9
:10033400862FB6015E2D4E2D222475029001649FF6
:10034400800174033209100D211D321D5603320938
:10035400100D211D321D700E811EB501592F482F1D
:10036400759F9001649F8001749F100D211D321DA3
:10037400569F100D211D321D300E411E521E631E4C
:10038400B60175039001649F800174033209100D56
:10039400211D321D659F100D211D321D500E611E41
:1003A400721E831E7E2D6E2DA50175039001649F20
:1003B400800174033209100D211D321D659F100D3B
:1003C400211D321D500E611E721E831E6A917A9188
:1003D400EA90EA9084EFD82E85EFC82E8FE3B82EEA
:1003E4008CE7A82E972F862FB6015E2D4E2D222442
:1003F40075029001649F800174033209100D211D60
:10040400321D56033209100D211D321D700E811E3E
:10041400B501592F482F759F9001649F8001749FE7
:10042400100D211D321D569F100D211D321D300E41
:10043400411E521E631EB60175039001649F800124
:1004440074033209100D211D321D659F100D211DED
:10045400321D500E611E721E831E7E2D6E2DA5014F
:1004640075039001649F800174033209100D211DEE
:10047400321D659F100D211D321D500E611E721E0E
:10048400831E86E08694779467948A95D9F788E0EA
:10049400A80FB21DED90ED907D916D91660E771EC3
:1004A40082E0759467948A95E1F788E0C80FD21DBD
:1004B400872D807887FF03C08FEFE82E02C080E08D
:1004C400E82EE992E99279926992FA94F2141895D5
:00000001FF
