:020000020000FC
:040000000C942C0030
:100054000C948F0022240E948E01C0E0D2E089E13A
:1000640029922992299229928A95D1F7A0E0B1E0A8
:10007400C0E0D2E0E0E0F3E090E087E69093C500D2
:100084008093C40088E18093C10086E08093C2001D
:1000940081E080937E0085E080937A0080E4809301
:1000A4007C0080917A00806280937A0080917A004B
:1000B400806880937A0080917A00886080937A00C7
:1000C40083E080937B0080E086BD81E387BD82E08E
:1000D40084BD83E085BD80917A00806480937A003A
:1000E4007894AFEF82E3F82EF214F1F7F89480E0FD
:1000F40080937A0080E085BDE0E0F3E000E018EC56
:10010400011749F08091C00085FFFACFF190F09279
:10011400C6000395F5CF0C948D0082E085BBAF3FFC
:1001240009F006C06091780070917900A0E0ECC0FD
:10013400609178007091790060507240872F8078C8
:1001440087FF03C08FEFE82E02C080E0E82EE9921B
:10015400E992799369938E01045612400AF402C01D
:10016400D2E0C0E0DD90CD90BD90AD903324442426
:10017400552466247724882488E1982E972F862F87
:10018400B6015E2D4E2D222475029001649F8001DC
:1001940074033209100D211D321D56033209100D4E
:1001A400211D321D700E811EB501592F482F759FD8
:1001B4009001649F8001749F100D211D321D569F74
:1001C400100D211D321D300E411E521E631EB6013C
:1001D40075039001649F800174033209100D211D81
:1001E400321D659F100D211D321D500E611E721EA1
:1001F400831E7E2D6E2DA50175039001649F8001E1
:1002040074033209100D211D321D659F100D211D2F
:10021400321D500E611E721E831EE990E990799181
:100224006991DD90CD90BD90AD908E010456124041
:100234000AF06CC09A9409F0A1CF972F862FB601CB
:100244005E2D4E2D222475029001649F800174035B
:100254003209100D211D321D56033209100D211DC6
:10026400321D700E811EB501592F482F759F9001C4
:10027400649F8001749F100D211D321D569F100D27
:10028400211D321D300E411E521E631EB601750320
:100294009001649F800174033209100D211D321DE9
:1002A400659F100D211D321D500E611E721E831E8E
:1002B4007E2D6E2DA50175039001649F800174034A
:1002C4003209100D211D321D659F100D211D321D97
:1002D400500E611E721E831E661C771C881C882D9E
:1002E400807887FF03C08FEFE82E02C080E0E82EFD
:1002F400E192E19281927192A0E0B1E0C4508E014A
:100304000050124032F0FA94F2141895D2E0C0E092
:1003140091CFD2E0C0E6F7CFA0E0B1E07FEF65EF88
:1003240056E145E17D936D935D934D937FEF66E9CF
:1003340056E84AEF7D936D935D934D9370E065E1CC
:100344005EEE4DE47D936D935D934D9371E06CE1AE
:100354005EE24BE77D936D935D934D937FEF62ED8A
:100364005EEF48E47D936D935D934D937DEF6EE571
:100374005BE64BE07D936D935D934D9370E06AE48F
:1003840054E748E07D936D935D934D9375E06CE87D
:1003940055E346E07D936D935D934D937FEF69E95B
:1003A40053E040EB7D936D935D934D9374EF6EE159
:1003B40055ED46E97D936D935D934D9370E06BE746
:1003C40058E844E87D936D935D934D9378E266E23B
:1003D40054ED48E97D936D935D934D937FE36CE712
:1003E4005FEF4FEF7D936D935D934D9378E266E2FB
:1003F40054ED48E97D936D935D934D9370E06BE705
:1004040058E844E87D936D935D934D9374EF6EE1EA
:1004140055ED46E97D936D935D934D937FEF69E9C7
:1004240053E040EB7D936D935D934D9375E06CE8E1
:1004340055E346E07D936D935D934D9370E06AE4DC
:1004440054E748E07D936D935D934D937DEF6EE5A6
:100454005BE64BE07D936D935D934D937FEF62ED8F
:100464005EEF48E47D936D935D934D9371E06CE191
:100474005EE24BE77D936D935D934D9370E065E190
:100484005EEE4DE47D936D935D934D937FEF66E94E
:1004940056E84AEF7D936D935D934D937FEF65EF3F
:0E04A40056E145E17D936D935D934D93089570
:00000001FF
